{
  "contractName": "ExampleTransferFund",
  "abi": [
    {
      "inputs": [],
      "name": "getBalance",
      "outputs": [
        {
          "internalType": "uint256",
          "name": "",
          "type": "uint256"
        }
      ],
      "stateMutability": "view",
      "type": "function",
      "constant": true
    },
    {
      "inputs": [],
      "name": "deposit",
      "outputs": [],
      "stateMutability": "payable",
      "type": "function",
      "payable": true
    }
  ],
  "bytecode": "0x608060405234801561001057600080fd5b50610165806100206000396000f3fe6080604052600436106100295760003560e01c806312065fe01461002e578063d0e30db014610059575b600080fd5b34801561003a57600080fd5b50610043610063565b604051610050919061009d565b60405180910390f35b61006161006b565b005b600047905090565b60008081548092919061007d906100e7565b9190505550565b6000819050919050565b61009781610084565b82525050565b60006020820190506100b2600083018461008e565b92915050565b7f4e487b7100000000000000000000000000000000000000000000000000000000600052601160045260246000fd5b60006100f282610084565b91507fffffffffffffffffffffffffffffffffffffffffffffffffffffffffffffffff8203610124576101236100b8565b5b60018201905091905056fea2646970667358221220d8ba2ba6b57a437fe144a3b6e2e07230c214bb66a8f9dc8cc85cedf5e39545bb64736f6c63430008130033",
  "immutableReferences": {},
  "source": "// SPDX-License-Identifier: MIT\npragma solidity 0.8.19;\n\n/*\nFunctions within the Smart Contract Wallet:\n\n1 - There can only be one owner of the wallet\n2 - Recieve funds \n3 - Transfer funds to EOE(Externally Owned Accounts) and other Smart Contracts\n4 - Restricted amount that can be transfered for each party\n5 - Option to transfer ownership with a vote of 3 out of 5 authorized members/voters\n\n*/\n\ncontract ExampleTransferFund {\n\n    uint counter;\n    function getBalance() public view returns(uint) {\n        return address(this).balance;\n    }\n\n    function deposit() public payable {\n        counter++;\n     }\n\n    // receive() external payable { }\n}\n\ncontract SmarContracttWallet {\n\n    address payable public owner;\n\n    mapping(address => uint) public limits;\n    mapping(address => bool) public AbletoSend;\n\n    mapping(address => bool) authorizedVoters;\n\n    address payable nextOwner;\n    uint VoterCount;\n    uint constant votesNeeded = 3;\n    mapping(address => mapping(address => bool)) hasVoterAlrVoted;\n\n    constructor() {\n        owner = payable(msg.sender);\n    }\n\n    mapping(uint => address) public listofVoters;\n    uint voterListCount;\n\n    function assignVoter(address _voter) public {\n        require(msg.sender == owner, \"You are not authorized for this action\");\n\n        authorizedVoters[_voter] = true;\n\n        listofVoters[voterListCount] = _voter;\n    }\n\n    function voteForNewOwner(address payable _newOwner) public {\n        require(authorizedVoters[msg.sender], \"You are not authorized for this action\");\n\n        // this makes sure the same voter doesn't vote twice for the specific newOwner\n        require(hasVoterAlrVoted[_newOwner][msg.sender] == false, \"You have already voted\");\n\n        if(nextOwner != _newOwner){\n            nextOwner = _newOwner;\n            VoterCount = 0;\n        }\n\n        VoterCount++;\n        hasVoterAlrVoted[_newOwner][msg.sender] = true;\n\n        if(VoterCount >= votesNeeded){\n            owner = _newOwner;\n            nextOwner = payable(address(0));\n        }\n\n    }\n\n    // The limits are set for other parties by the owner through this function\n    function setLimit(address _whoCanSend, uint _restriction) public {\n        require(msg.sender == owner, \"You are not authorized for this action\");\n\n        // set limit\n        limits[_whoCanSend] = _restriction;\n\n        if(_restriction > 0){\n            AbletoSend[_whoCanSend] = true;\n        }\n        else {\n            AbletoSend[_whoCanSend] = false;\n        }\n        \n        \n    }\n\n    // Funds Transfering\n    function transferFunds(address payable _to, uint amountToTransfer) public {\n        //require(msg.sender == owner, \"This action is restricted to the owner\");\n\n        //If it's not the owner, then limits apply\n        // if(msg.sender != owner){\n\n        //     // checks for limits\n        //     require(limits[msg.sender] >= amountToTransfer, \"Transfer Limit Exceeded\");\n\n        //     //ensures no one's transfering unneccessary 0 currency repeatdly\n        //     require(AbletoSend[msg.sender], \"Transfer Amount Unacceptable\");\n\n        //     limits[msg.sender] -= amountToTransfer;\n\n        // }\n\n        // The owner has no limit to transfer funds\n        // (bool success, bytes memory returnData) =  _to.call{value: amountToTransfer}(_payload);\n        // require(success, \"Failed\");\n        // return returnData;\n\n        _to.transfer(amountToTransfer);\n    }\n\n    receive() external payable { }\n\n\n}",
  "sourcePath": "/Users/shraiyashpandey/Desktop/Smart Wallet 2.0/contracts/SmartContractWallet.sol",
  "compiler": {
    "name": "solc",
    "version": "0.8.19+commit.7dd6d404.Emscripten.clang"
  },
  "schemaVersion": "3.4.16",
  "updatedAt": "2024-05-10T10:19:31.610Z",
  "networkType": "ethereum",
  "devdoc": {
    "kind": "dev",
    "methods": {},
    "version": 1
  },
  "userdoc": {
    "kind": "user",
    "methods": {},
    "version": 1
  }
}