{
  "contractName": "SmarContracttWallet",
  "abi": [
    {
      "inputs": [],
      "stateMutability": "nonpayable",
      "type": "constructor"
    },
    {
      "inputs": [
        {
          "internalType": "address",
          "name": "",
          "type": "address"
        }
      ],
      "name": "AbletoSend",
      "outputs": [
        {
          "internalType": "bool",
          "name": "",
          "type": "bool"
        }
      ],
      "stateMutability": "view",
      "type": "function",
      "constant": true
    },
    {
      "inputs": [
        {
          "internalType": "address",
          "name": "",
          "type": "address"
        }
      ],
      "name": "limits",
      "outputs": [
        {
          "internalType": "uint256",
          "name": "",
          "type": "uint256"
        }
      ],
      "stateMutability": "view",
      "type": "function",
      "constant": true
    },
    {
      "inputs": [
        {
          "internalType": "uint256",
          "name": "",
          "type": "uint256"
        }
      ],
      "name": "listofVoters",
      "outputs": [
        {
          "internalType": "address",
          "name": "",
          "type": "address"
        }
      ],
      "stateMutability": "view",
      "type": "function",
      "constant": true
    },
    {
      "inputs": [],
      "name": "owner",
      "outputs": [
        {
          "internalType": "address payable",
          "name": "",
          "type": "address"
        }
      ],
      "stateMutability": "view",
      "type": "function",
      "constant": true
    },
    {
      "stateMutability": "payable",
      "type": "receive",
      "payable": true
    },
    {
      "inputs": [
        {
          "internalType": "address",
          "name": "_voter",
          "type": "address"
        }
      ],
      "name": "assignVoter",
      "outputs": [],
      "stateMutability": "nonpayable",
      "type": "function"
    },
    {
      "inputs": [
        {
          "internalType": "address payable",
          "name": "_newOwner",
          "type": "address"
        }
      ],
      "name": "voteForNewOwner",
      "outputs": [],
      "stateMutability": "nonpayable",
      "type": "function"
    },
    {
      "inputs": [
        {
          "internalType": "address",
          "name": "_whoCanSend",
          "type": "address"
        },
        {
          "internalType": "uint256",
          "name": "_restriction",
          "type": "uint256"
        }
      ],
      "name": "setLimit",
      "outputs": [],
      "stateMutability": "nonpayable",
      "type": "function"
    },
    {
      "inputs": [
        {
          "internalType": "address payable",
          "name": "_to",
          "type": "address"
        },
        {
          "internalType": "uint256",
          "name": "amountToTransfer",
          "type": "uint256"
        }
      ],
      "name": "transferFunds",
      "outputs": [],
      "stateMutability": "nonpayable",
      "type": "function"
    }
  ],
  "bytecode": "0x608060405234801561001057600080fd5b50336000806101000a81548173ffffffffffffffffffffffffffffffffffffffff021916908373ffffffffffffffffffffffffffffffffffffffff160217905550610d43806100606000396000f3fe60806040526004361061007f5760003560e01c80638da5cb5b1161004e5780638da5cb5b14610157578063990dc9db14610182578063a66c94e9146101ab578063d63bdb95146101d457610086565b806307fa49fe1461008b57806320d7bec1146100c857806336db43b5146101055780636f09699c1461012e57610086565b3661008657005b600080fd5b34801561009757600080fd5b506100b260048036038101906100ad9190610958565b610211565b6040516100bf91906109a0565b60405180910390f35b3480156100d457600080fd5b506100ef60048036038101906100ea9190610958565b610231565b6040516100fc91906109d4565b60405180910390f35b34801561011157600080fd5b5061012c60048036038101906101279190610a1b565b610249565b005b34801561013a57600080fd5b5061015560048036038101906101509190610958565b6103de565b005b34801561016357600080fd5b5061016c61051b565b6040516101799190610a7c565b60405180910390f35b34801561018e57600080fd5b506101a960048036038101906101a49190610ac3565b61053f565b005b3480156101b757600080fd5b506101d260048036038101906101cd9190610b03565b61058a565b005b3480156101e057600080fd5b506101fb60048036038101906101f69190610b30565b6108c2565b6040516102089190610b6c565b60405180910390f35b60026020528060005260406000206000915054906101000a900460ff1681565b60016020528060005260406000206000915090505481565b60008054906101000a900473ffffffffffffffffffffffffffffffffffffffff1673ffffffffffffffffffffffffffffffffffffffff163373ffffffffffffffffffffffffffffffffffffffff16146102d7576040517f08c379a00000000000000000000000000000000000000000000000000000000081526004016102ce90610c0a565b60405180910390fd5b80600160008473ffffffffffffffffffffffffffffffffffffffff1673ffffffffffffffffffffffffffffffffffffffff168152602001908152602001600020819055506000811115610381576001600260008473ffffffffffffffffffffffffffffffffffffffff1673ffffffffffffffffffffffffffffffffffffffff16815260200190815260200160002060006101000a81548160ff0219169083151502179055506103da565b6000600260008473ffffffffffffffffffffffffffffffffffffffff1673ffffffffffffffffffffffffffffffffffffffff16815260200190815260200160002060006101000a81548160ff0219169083151502179055505b5050565b60008054906101000a900473ffffffffffffffffffffffffffffffffffffffff1673ffffffffffffffffffffffffffffffffffffffff163373ffffffffffffffffffffffffffffffffffffffff161461046c576040517f08c379a000000000000000000000000000000000000000000000000000000000815260040161046390610c0a565b60405180910390fd5b6001600360008373ffffffffffffffffffffffffffffffffffffffff1673ffffffffffffffffffffffffffffffffffffffff16815260200190815260200160002060006101000a81548160ff0219169083151502179055508060076000600854815260200190815260200160002060006101000a81548173ffffffffffffffffffffffffffffffffffffffff021916908373ffffffffffffffffffffffffffffffffffffffff16021790555050565b60008054906101000a900473ffffffffffffffffffffffffffffffffffffffff1681565b8173ffffffffffffffffffffffffffffffffffffffff166108fc829081150290604051600060405180830381858888f19350505050158015610585573d6000803e3d6000fd5b505050565b600360003373ffffffffffffffffffffffffffffffffffffffff1673ffffffffffffffffffffffffffffffffffffffff16815260200190815260200160002060009054906101000a900460ff16610616576040517f08c379a000000000000000000000000000000000000000000000000000000000815260040161060d90610c0a565b60405180910390fd5b60001515600660008373ffffffffffffffffffffffffffffffffffffffff1673ffffffffffffffffffffffffffffffffffffffff16815260200190815260200160002060003373ffffffffffffffffffffffffffffffffffffffff1673ffffffffffffffffffffffffffffffffffffffff16815260200190815260200160002060009054906101000a900460ff161515146106e6576040517f08c379a00000000000000000000000000000000000000000000000000000000081526004016106dd90610c76565b60405180910390fd5b8073ffffffffffffffffffffffffffffffffffffffff16600460009054906101000a900473ffffffffffffffffffffffffffffffffffffffff1673ffffffffffffffffffffffffffffffffffffffff16146107855780600460006101000a81548173ffffffffffffffffffffffffffffffffffffffff021916908373ffffffffffffffffffffffffffffffffffffffff16021790555060006005819055505b6005600081548092919061079890610cc5565b91905055506001600660008373ffffffffffffffffffffffffffffffffffffffff1673ffffffffffffffffffffffffffffffffffffffff16815260200190815260200160002060003373ffffffffffffffffffffffffffffffffffffffff1673ffffffffffffffffffffffffffffffffffffffff16815260200190815260200160002060006101000a81548160ff0219169083151502179055506003600554106108bf57806000806101000a81548173ffffffffffffffffffffffffffffffffffffffff021916908373ffffffffffffffffffffffffffffffffffffffff1602179055506000600460006101000a81548173ffffffffffffffffffffffffffffffffffffffff021916908373ffffffffffffffffffffffffffffffffffffffff1602179055505b50565b60076020528060005260406000206000915054906101000a900473ffffffffffffffffffffffffffffffffffffffff1681565b600080fd5b600073ffffffffffffffffffffffffffffffffffffffff82169050919050565b6000610925826108fa565b9050919050565b6109358161091a565b811461094057600080fd5b50565b6000813590506109528161092c565b92915050565b60006020828403121561096e5761096d6108f5565b5b600061097c84828501610943565b91505092915050565b60008115159050919050565b61099a81610985565b82525050565b60006020820190506109b56000830184610991565b92915050565b6000819050919050565b6109ce816109bb565b82525050565b60006020820190506109e960008301846109c5565b92915050565b6109f8816109bb565b8114610a0357600080fd5b50565b600081359050610a15816109ef565b92915050565b60008060408385031215610a3257610a316108f5565b5b6000610a4085828601610943565b9250506020610a5185828601610a06565b9150509250929050565b6000610a66826108fa565b9050919050565b610a7681610a5b565b82525050565b6000602082019050610a916000830184610a6d565b92915050565b610aa081610a5b565b8114610aab57600080fd5b50565b600081359050610abd81610a97565b92915050565b60008060408385031215610ada57610ad96108f5565b5b6000610ae885828601610aae565b9250506020610af985828601610a06565b9150509250929050565b600060208284031215610b1957610b186108f5565b5b6000610b2784828501610aae565b91505092915050565b600060208284031215610b4657610b456108f5565b5b6000610b5484828501610a06565b91505092915050565b610b668161091a565b82525050565b6000602082019050610b816000830184610b5d565b92915050565b600082825260208201905092915050565b7f596f7520617265206e6f7420617574686f72697a656420666f7220746869732060008201527f616374696f6e0000000000000000000000000000000000000000000000000000602082015250565b6000610bf4602683610b87565b9150610bff82610b98565b604082019050919050565b60006020820190508181036000830152610c2381610be7565b9050919050565b7f596f75206861766520616c726561647920766f74656400000000000000000000600082015250565b6000610c60601683610b87565b9150610c6b82610c2a565b602082019050919050565b60006020820190508181036000830152610c8f81610c53565b9050919050565b7f4e487b7100000000000000000000000000000000000000000000000000000000600052601160045260246000fd5b6000610cd0826109bb565b91507fffffffffffffffffffffffffffffffffffffffffffffffffffffffffffffffff8203610d0257610d01610c96565b5b60018201905091905056fea26469706673582212206fdbafd7b82819e08344ad96b78112d76be25a9284a34caaeff36f558097f44164736f6c63430008130033",
  "immutableReferences": {},
  "source": "// SPDX-License-Identifier: MIT\npragma solidity 0.8.19;\n\n/*\nFunctions within the Smart Contract Wallet:\n\n1 - There can only be one owner of the wallet\n2 - Recieve funds \n3 - Transfer funds to EOE(Externally Owned Accounts) and other Smart Contracts\n4 - Restricted amount that can be transfered for each party\n5 - Option to transfer ownership with a vote of 3 out of 5 authorized members/voters\n\n*/\n\ncontract ExampleTransferFund {\n\n    uint counter;\n    function getBalance() public view returns(uint) {\n        return address(this).balance;\n    }\n\n    function deposit() public payable {\n        counter++;\n     }\n\n    // receive() external payable { }\n}\n\ncontract SmarContracttWallet {\n\n    address payable public owner;\n\n    mapping(address => uint) public limits;\n    mapping(address => bool) public AbletoSend;\n\n    mapping(address => bool) authorizedVoters;\n\n    address payable nextOwner;\n    uint VoterCount;\n    uint constant votesNeeded = 3;\n    mapping(address => mapping(address => bool)) hasVoterAlrVoted;\n\n    constructor() {\n        owner = payable(msg.sender);\n    }\n\n    mapping(uint => address) public listofVoters;\n    uint voterListCount;\n\n    function assignVoter(address _voter) public {\n        require(msg.sender == owner, \"You are not authorized for this action\");\n\n        authorizedVoters[_voter] = true;\n\n        listofVoters[voterListCount] = _voter;\n    }\n\n    function voteForNewOwner(address payable _newOwner) public {\n        require(authorizedVoters[msg.sender], \"You are not authorized for this action\");\n\n        // this makes sure the same voter doesn't vote twice for the specific newOwner\n        require(hasVoterAlrVoted[_newOwner][msg.sender] == false, \"You have already voted\");\n\n        if(nextOwner != _newOwner){\n            nextOwner = _newOwner;\n            VoterCount = 0;\n        }\n\n        VoterCount++;\n        hasVoterAlrVoted[_newOwner][msg.sender] = true;\n\n        if(VoterCount >= votesNeeded){\n            owner = _newOwner;\n            nextOwner = payable(address(0));\n        }\n\n    }\n\n    // The limits are set for other parties by the owner through this function\n    function setLimit(address _whoCanSend, uint _restriction) public {\n        require(msg.sender == owner, \"You are not authorized for this action\");\n\n        // set limit\n        limits[_whoCanSend] = _restriction;\n\n        if(_restriction > 0){\n            AbletoSend[_whoCanSend] = true;\n        }\n        else {\n            AbletoSend[_whoCanSend] = false;\n        }\n        \n        \n    }\n\n    // Funds Transfering\n    function transferFunds(address payable _to, uint amountToTransfer) public {\n        //require(msg.sender == owner, \"This action is restricted to the owner\");\n\n        //If it's not the owner, then limits apply\n        // if(msg.sender != owner){\n\n        //     // checks for limits\n        //     require(limits[msg.sender] >= amountToTransfer, \"Transfer Limit Exceeded\");\n\n        //     //ensures no one's transfering unneccessary 0 currency repeatdly\n        //     require(AbletoSend[msg.sender], \"Transfer Amount Unacceptable\");\n\n        //     limits[msg.sender] -= amountToTransfer;\n\n        // }\n\n        // The owner has no limit to transfer funds\n        // (bool success, bytes memory returnData) =  _to.call{value: amountToTransfer}(_payload);\n        // require(success, \"Failed\");\n        // return returnData;\n\n        _to.transfer(amountToTransfer);\n    }\n\n    receive() external payable { }\n\n\n}",
  "sourcePath": "/Users/shraiyashpandey/Desktop/Smart Wallet 2.0/contracts/SmartContractWallet.sol",
  "compiler": {
    "name": "solc",
    "version": "0.8.19+commit.7dd6d404.Emscripten.clang"
  },
  "schemaVersion": "3.4.16",
  "updatedAt": "2024-05-10T10:19:31.367Z",
  "networkType": "ethereum",
  "devdoc": {
    "kind": "dev",
    "methods": {},
    "version": 1
  },
  "userdoc": {
    "kind": "user",
    "methods": {},
    "version": 1
  }
}